{
  "_format": "hh-sol-artifact-1",
  "contractName": "CryptoPictures",
  "sourceName": "contracts/CryptoPicture.sol",
  "abi": [
    {
      "inputs": [],
      "stateMutability": "nonpayable",
      "type": "constructor"
    },
    {
      "anonymous": false,
      "inputs": [
        {
          "indexed": true,
          "internalType": "address",
          "name": "owner",
          "type": "address"
        },
        {
          "indexed": true,
          "internalType": "address",
          "name": "approved",
          "type": "address"
        },
        {
          "indexed": true,
          "internalType": "uint256",
          "name": "tokenId",
          "type": "uint256"
        }
      ],
      "name": "Approval",
      "type": "event"
    },
    {
      "anonymous": false,
      "inputs": [
        {
          "indexed": true,
          "internalType": "address",
          "name": "owner",
          "type": "address"
        },
        {
          "indexed": true,
          "internalType": "address",
          "name": "operator",
          "type": "address"
        },
        {
          "indexed": false,
          "internalType": "bool",
          "name": "approved",
          "type": "bool"
        }
      ],
      "name": "ApprovalForAll",
      "type": "event"
    },
    {
      "anonymous": false,
      "inputs": [
        {
          "indexed": true,
          "internalType": "address",
          "name": "previousOwner",
          "type": "address"
        },
        {
          "indexed": true,
          "internalType": "address",
          "name": "newOwner",
          "type": "address"
        }
      ],
      "name": "OwnershipTransferred",
      "type": "event"
    },
    {
      "anonymous": false,
      "inputs": [
        {
          "indexed": true,
          "internalType": "address",
          "name": "from",
          "type": "address"
        },
        {
          "indexed": true,
          "internalType": "address",
          "name": "to",
          "type": "address"
        },
        {
          "indexed": true,
          "internalType": "uint256",
          "name": "tokenId",
          "type": "uint256"
        }
      ],
      "name": "Transfer",
      "type": "event"
    },
    {
      "inputs": [
        {
          "internalType": "address",
          "name": "to",
          "type": "address"
        },
        {
          "internalType": "uint256",
          "name": "tokenId",
          "type": "uint256"
        }
      ],
      "name": "approve",
      "outputs": [],
      "stateMutability": "nonpayable",
      "type": "function"
    },
    {
      "inputs": [
        {
          "internalType": "address",
          "name": "owner",
          "type": "address"
        }
      ],
      "name": "balanceOf",
      "outputs": [
        {
          "internalType": "uint256",
          "name": "",
          "type": "uint256"
        }
      ],
      "stateMutability": "view",
      "type": "function"
    },
    {
      "inputs": [],
      "name": "collectionName",
      "outputs": [
        {
          "internalType": "string",
          "name": "",
          "type": "string"
        }
      ],
      "stateMutability": "view",
      "type": "function"
    },
    {
      "inputs": [],
      "name": "collectionNameSymbol",
      "outputs": [
        {
          "internalType": "string",
          "name": "",
          "type": "string"
        }
      ],
      "stateMutability": "view",
      "type": "function"
    },
    {
      "inputs": [
        {
          "internalType": "uint256",
          "name": "",
          "type": "uint256"
        }
      ],
      "name": "cryptoPictures",
      "outputs": [
        {
          "internalType": "string",
          "name": "uri",
          "type": "string"
        },
        {
          "internalType": "string",
          "name": "author",
          "type": "string"
        },
        {
          "internalType": "string",
          "name": "createAt",
          "type": "string"
        }
      ],
      "stateMutability": "view",
      "type": "function"
    },
    {
      "inputs": [
        {
          "internalType": "uint256",
          "name": "tokenId",
          "type": "uint256"
        }
      ],
      "name": "getApproved",
      "outputs": [
        {
          "internalType": "address",
          "name": "",
          "type": "address"
        }
      ],
      "stateMutability": "view",
      "type": "function"
    },
    {
      "inputs": [
        {
          "internalType": "uint256",
          "name": "_tokenId",
          "type": "uint256"
        }
      ],
      "name": "getCryptoPictureDetail",
      "outputs": [
        {
          "components": [
            {
              "internalType": "string",
              "name": "uri",
              "type": "string"
            },
            {
              "internalType": "string",
              "name": "author",
              "type": "string"
            },
            {
              "internalType": "string",
              "name": "createAt",
              "type": "string"
            }
          ],
          "internalType": "struct CryptoPictures.CryptoPicture",
          "name": "",
          "type": "tuple"
        }
      ],
      "stateMutability": "view",
      "type": "function"
    },
    {
      "inputs": [
        {
          "internalType": "address",
          "name": "_owner",
          "type": "address"
        }
      ],
      "name": "getCryptoPictures",
      "outputs": [
        {
          "internalType": "uint256[]",
          "name": "",
          "type": "uint256[]"
        }
      ],
      "stateMutability": "view",
      "type": "function"
    },
    {
      "inputs": [
        {
          "internalType": "address",
          "name": "owner",
          "type": "address"
        },
        {
          "internalType": "address",
          "name": "operator",
          "type": "address"
        }
      ],
      "name": "isApprovedForAll",
      "outputs": [
        {
          "internalType": "bool",
          "name": "",
          "type": "bool"
        }
      ],
      "stateMutability": "view",
      "type": "function"
    },
    {
      "inputs": [
        {
          "internalType": "string",
          "name": "_uri",
          "type": "string"
        },
        {
          "internalType": "string",
          "name": "_author",
          "type": "string"
        },
        {
          "internalType": "string",
          "name": "_createdAt",
          "type": "string"
        },
        {
          "internalType": "string",
          "name": "_tokenuri",
          "type": "string"
        }
      ],
      "name": "mintCryptoPicture",
      "outputs": [],
      "stateMutability": "payable",
      "type": "function"
    },
    {
      "inputs": [],
      "name": "name",
      "outputs": [
        {
          "internalType": "string",
          "name": "",
          "type": "string"
        }
      ],
      "stateMutability": "view",
      "type": "function"
    },
    {
      "inputs": [],
      "name": "owner",
      "outputs": [
        {
          "internalType": "address",
          "name": "",
          "type": "address"
        }
      ],
      "stateMutability": "view",
      "type": "function"
    },
    {
      "inputs": [
        {
          "internalType": "uint256",
          "name": "tokenId",
          "type": "uint256"
        }
      ],
      "name": "ownerOf",
      "outputs": [
        {
          "internalType": "address",
          "name": "",
          "type": "address"
        }
      ],
      "stateMutability": "view",
      "type": "function"
    },
    {
      "inputs": [],
      "name": "renounceOwnership",
      "outputs": [],
      "stateMutability": "nonpayable",
      "type": "function"
    },
    {
      "inputs": [
        {
          "internalType": "address",
          "name": "from",
          "type": "address"
        },
        {
          "internalType": "address",
          "name": "to",
          "type": "address"
        },
        {
          "internalType": "uint256",
          "name": "tokenId",
          "type": "uint256"
        }
      ],
      "name": "safeTransferFrom",
      "outputs": [],
      "stateMutability": "nonpayable",
      "type": "function"
    },
    {
      "inputs": [
        {
          "internalType": "address",
          "name": "from",
          "type": "address"
        },
        {
          "internalType": "address",
          "name": "to",
          "type": "address"
        },
        {
          "internalType": "uint256",
          "name": "tokenId",
          "type": "uint256"
        },
        {
          "internalType": "bytes",
          "name": "data",
          "type": "bytes"
        }
      ],
      "name": "safeTransferFrom",
      "outputs": [],
      "stateMutability": "nonpayable",
      "type": "function"
    },
    {
      "inputs": [
        {
          "internalType": "address",
          "name": "operator",
          "type": "address"
        },
        {
          "internalType": "bool",
          "name": "approved",
          "type": "bool"
        }
      ],
      "name": "setApprovalForAll",
      "outputs": [],
      "stateMutability": "nonpayable",
      "type": "function"
    },
    {
      "inputs": [
        {
          "internalType": "bytes4",
          "name": "interfaceId",
          "type": "bytes4"
        }
      ],
      "name": "supportsInterface",
      "outputs": [
        {
          "internalType": "bool",
          "name": "",
          "type": "bool"
        }
      ],
      "stateMutability": "view",
      "type": "function"
    },
    {
      "inputs": [],
      "name": "symbol",
      "outputs": [
        {
          "internalType": "string",
          "name": "",
          "type": "string"
        }
      ],
      "stateMutability": "view",
      "type": "function"
    },
    {
      "inputs": [
        {
          "internalType": "uint256",
          "name": "tokenId",
          "type": "uint256"
        }
      ],
      "name": "tokenURI",
      "outputs": [
        {
          "internalType": "string",
          "name": "",
          "type": "string"
        }
      ],
      "stateMutability": "view",
      "type": "function"
    },
    {
      "inputs": [
        {
          "internalType": "address",
          "name": "from",
          "type": "address"
        },
        {
          "internalType": "address",
          "name": "to",
          "type": "address"
        },
        {
          "internalType": "uint256",
          "name": "tokenId",
          "type": "uint256"
        }
      ],
      "name": "transferFrom",
      "outputs": [],
      "stateMutability": "nonpayable",
      "type": "function"
    },
    {
      "inputs": [
        {
          "internalType": "address",
          "name": "newOwner",
          "type": "address"
        }
      ],
      "name": "transferOwnership",
      "outputs": [],
      "stateMutability": "nonpayable",
      "type": "function"
    },
    {
      "inputs": [],
      "name": "withdraw",
      "outputs": [],
      "stateMutability": "nonpayable",
      "type": "function"
    }
  ],
  "bytecode": "0x60806040523480156200001157600080fd5b506040518060400160405280601a81526020017f43727970746f20506963747572657320436f6c6c656374696f6e0000000000008152506040518060400160405280600281526020017f43500000000000000000000000000000000000000000000000000000000000008152508160009080519060200190620000969291906200032a565b508060019080519060200190620000af9291906200032a565b505050620000d2620000c66200012860201b60201c565b6200013060201b60201c565b620000e2620001f660201b60201c565b60089080519060200190620000f99291906200032a565b506200010a6200029060201b60201c565b60099080519060200190620001219291906200032a565b506200043f565b600033905090565b6000600760009054906101000a900473ffffffffffffffffffffffffffffffffffffffff16905081600760006101000a81548173ffffffffffffffffffffffffffffffffffffffff021916908373ffffffffffffffffffffffffffffffffffffffff1602179055508173ffffffffffffffffffffffffffffffffffffffff168173ffffffffffffffffffffffffffffffffffffffff167f8be0079c531659141344cd1fd0a4f28419497f9722a3daafe3b4186f6b6457e060405160405180910390a35050565b606060008054620002079062000409565b80601f0160208091040260200160405190810160405280929190818152602001828054620002359062000409565b8015620002865780601f106200025a5761010080835404028352916020019162000286565b820191906000526020600020905b8154815290600101906020018083116200026857829003601f168201915b5050505050905090565b606060018054620002a19062000409565b80601f0160208091040260200160405190810160405280929190818152602001828054620002cf9062000409565b8015620003205780601f10620002f45761010080835404028352916020019162000320565b820191906000526020600020905b8154815290600101906020018083116200030257829003601f168201915b5050505050905090565b828054620003389062000409565b90600052602060002090601f0160209004810192826200035c5760008555620003a8565b82601f106200037757805160ff1916838001178555620003a8565b82800160010185558215620003a8579182015b82811115620003a75782518255916020019190600101906200038a565b5b509050620003b79190620003bb565b5090565b5b80821115620003d6576000816000905550600101620003bc565b5090565b7f4e487b7100000000000000000000000000000000000000000000000000000000600052602260045260246000fd5b600060028204905060018216806200042257607f821691505b60208210811415620004395762000438620003da565b5b50919050565b613770806200044f6000396000f3fe6080604052600436106101405760003560e01c80638da5cb5b116100b6578063c48de46c1161006f578063c48de46c1461045c578063c87b56dd14610499578063d99193c9146104d6578063e5326ab1146104f2578063e985e9c51461051d578063f2fde38b1461055a57610140565b80638da5cb5b1461033857806395d89b4114610363578063a22cb4651461038e578063a613d08f146103b7578063b88d4fde146103f6578063bf0c18a71461041f57610140565b80633ccfd60b116101085780633ccfd60b1461023c57806342842e0e146102535780636352211e1461027c5780636f9507f9146102b957806370a08231146102e4578063715018a61461032157610140565b806301ffc9a71461014557806306fdde0314610182578063081812fc146101ad578063095ea7b3146101ea57806323b872dd14610213575b600080fd5b34801561015157600080fd5b5061016c600480360381019061016791906123d1565b610583565b6040516101799190612419565b60405180910390f35b34801561018e57600080fd5b50610197610665565b6040516101a491906124cd565b60405180910390f35b3480156101b957600080fd5b506101d460048036038101906101cf9190612525565b6106f7565b6040516101e19190612593565b60405180910390f35b3480156101f657600080fd5b50610211600480360381019061020c91906125da565b61073d565b005b34801561021f57600080fd5b5061023a6004803603810190610235919061261a565b610855565b005b34801561024857600080fd5b506102516108b5565b005b34801561025f57600080fd5b5061027a6004803603810190610275919061261a565b610913565b005b34801561028857600080fd5b506102a3600480360381019061029e9190612525565b610933565b6040516102b09190612593565b60405180910390f35b3480156102c557600080fd5b506102ce6109e5565b6040516102db91906124cd565b60405180910390f35b3480156102f057600080fd5b5061030b6004803603810190610306919061266d565b610a73565b60405161031891906126a9565b60405180910390f35b34801561032d57600080fd5b50610336610b2b565b005b34801561034457600080fd5b5061034d610b3f565b60405161035a9190612593565b60405180910390f35b34801561036f57600080fd5b50610378610b69565b60405161038591906124cd565b60405180910390f35b34801561039a57600080fd5b506103b560048036038101906103b091906126f0565b610bfb565b005b3480156103c357600080fd5b506103de60048036038101906103d99190612525565b610c11565b6040516103ed93929190612730565b60405180910390f35b34801561040257600080fd5b5061041d600480360381019061041891906128b1565b610de3565b005b34801561042b57600080fd5b5061044660048036038101906104419190612525565b610e45565b60405161045391906129dc565b60405180910390f35b34801561046857600080fd5b50610483600480360381019061047e919061266d565b611037565b6040516104909190612abc565b60405180910390f35b3480156104a557600080fd5b506104c060048036038101906104bb9190612525565b611128565b6040516104cd91906124cd565b60405180910390f35b6104f060048036038101906104eb9190612b7f565b61123b565b005b3480156104fe57600080fd5b5061050761131e565b60405161051491906124cd565b60405180910390f35b34801561052957600080fd5b50610544600480360381019061053f9190612c56565b6113ac565b6040516105519190612419565b60405180910390f35b34801561056657600080fd5b50610581600480360381019061057c919061266d565b611440565b005b60007f80ac58cd000000000000000000000000000000000000000000000000000000007bffffffffffffffffffffffffffffffffffffffffffffffffffffffff1916827bffffffffffffffffffffffffffffffffffffffffffffffffffffffff1916148061064e57507f5b5e139f000000000000000000000000000000000000000000000000000000007bffffffffffffffffffffffffffffffffffffffffffffffffffffffff1916827bffffffffffffffffffffffffffffffffffffffffffffffffffffffff1916145b8061065e575061065d826114c4565b5b9050919050565b60606000805461067490612cc5565b80601f01602080910402602001604051908101604052809291908181526020018280546106a090612cc5565b80156106ed5780601f106106c2576101008083540402835291602001916106ed565b820191906000526020600020905b8154815290600101906020018083116106d057829003601f168201915b5050505050905090565b60006107028261152e565b6004600083815260200190815260200160002060009054906101000a900473ffffffffffffffffffffffffffffffffffffffff169050919050565b600061074882610933565b90508073ffffffffffffffffffffffffffffffffffffffff168373ffffffffffffffffffffffffffffffffffffffff1614156107b9576040517f08c379a00000000000000000000000000000000000000000000000000000000081526004016107b090612d69565b60405180910390fd5b8073ffffffffffffffffffffffffffffffffffffffff166107d8611579565b73ffffffffffffffffffffffffffffffffffffffff161480610807575061080681610801611579565b6113ac565b5b610846576040517f08c379a000000000000000000000000000000000000000000000000000000000815260040161083d90612dfb565b60405180910390fd5b6108508383611581565b505050565b610866610860611579565b8261163a565b6108a5576040517f08c379a000000000000000000000000000000000000000000000000000000000815260040161089c90612e8d565b60405180910390fd5b6108b08383836116cf565b505050565b6108bd611936565b60006108c7610b3f565b90508073ffffffffffffffffffffffffffffffffffffffff166108fc479081150290604051600060405180830381858888f1935050505015801561090f573d6000803e3d6000fd5b5050565b61092e83838360405180602001604052806000815250610de3565b505050565b6000806002600084815260200190815260200160002060009054906101000a900473ffffffffffffffffffffffffffffffffffffffff169050600073ffffffffffffffffffffffffffffffffffffffff168173ffffffffffffffffffffffffffffffffffffffff1614156109dc576040517f08c379a00000000000000000000000000000000000000000000000000000000081526004016109d390612ef9565b60405180910390fd5b80915050919050565b600980546109f290612cc5565b80601f0160208091040260200160405190810160405280929190818152602001828054610a1e90612cc5565b8015610a6b5780601f10610a4057610100808354040283529160200191610a6b565b820191906000526020600020905b815481529060010190602001808311610a4e57829003601f168201915b505050505081565b60008073ffffffffffffffffffffffffffffffffffffffff168273ffffffffffffffffffffffffffffffffffffffff161415610ae4576040517f08c379a0000000000000000000000000000000000000000000000000000000008152600401610adb90612f8b565b60405180910390fd5b600360008373ffffffffffffffffffffffffffffffffffffffff1673ffffffffffffffffffffffffffffffffffffffff168152602001908152602001600020549050919050565b610b33611936565b610b3d60006119b4565b565b6000600760009054906101000a900473ffffffffffffffffffffffffffffffffffffffff16905090565b606060018054610b7890612cc5565b80601f0160208091040260200160405190810160405280929190818152602001828054610ba490612cc5565b8015610bf15780601f10610bc657610100808354040283529160200191610bf1565b820191906000526020600020905b815481529060010190602001808311610bd457829003601f168201915b5050505050905090565b610c0d610c06611579565b8383611a7a565b5050565b600a8181548110610c2157600080fd5b9060005260206000209060030201600091509050806000018054610c4490612cc5565b80601f0160208091040260200160405190810160405280929190818152602001828054610c7090612cc5565b8015610cbd5780601f10610c9257610100808354040283529160200191610cbd565b820191906000526020600020905b815481529060010190602001808311610ca057829003601f168201915b505050505090806001018054610cd290612cc5565b80601f0160208091040260200160405190810160405280929190818152602001828054610cfe90612cc5565b8015610d4b5780601f10610d2057610100808354040283529160200191610d4b565b820191906000526020600020905b815481529060010190602001808311610d2e57829003601f168201915b505050505090806002018054610d6090612cc5565b80601f0160208091040260200160405190810160405280929190818152602001828054610d8c90612cc5565b8015610dd95780601f10610dae57610100808354040283529160200191610dd9565b820191906000526020600020905b815481529060010190602001808311610dbc57829003601f168201915b5050505050905083565b610df4610dee611579565b8361163a565b610e33576040517f08c379a0000000000000000000000000000000000000000000000000000000008152600401610e2a90612e8d565b60405180910390fd5b610e3f84848484611be7565b50505050565b610e4d6122a1565b600a8281548110610e6157610e60612fab565b5b9060005260206000209060030201604051806060016040529081600082018054610e8a90612cc5565b80601f0160208091040260200160405190810160405280929190818152602001828054610eb690612cc5565b8015610f035780601f10610ed857610100808354040283529160200191610f03565b820191906000526020600020905b815481529060010190602001808311610ee657829003601f168201915b50505050508152602001600182018054610f1c90612cc5565b80601f0160208091040260200160405190810160405280929190818152602001828054610f4890612cc5565b8015610f955780601f10610f6a57610100808354040283529160200191610f95565b820191906000526020600020905b815481529060010190602001808311610f7857829003601f168201915b50505050508152602001600282018054610fae90612cc5565b80601f0160208091040260200160405190810160405280929190818152602001828054610fda90612cc5565b80156110275780601f10610ffc57610100808354040283529160200191611027565b820191906000526020600020905b81548152906001019060200180831161100a57829003601f168201915b5050505050815250509050919050565b6060600061104483610a73565b67ffffffffffffffff81111561105d5761105c612786565b5b60405190808252806020026020018201604052801561108b5781602001602082028036833780820191505090505b5090506000805b600a8054905081101561111d578473ffffffffffffffffffffffffffffffffffffffff166110bf82610933565b73ffffffffffffffffffffffffffffffffffffffff16141561110a57808383815181106110ef576110ee612fab565b5b602002602001018181525050818061110690613009565b9250505b808061111590613009565b915050611092565b508192505050919050565b60606111338261152e565b600060066000848152602001908152602001600020805461115390612cc5565b80601f016020809104026020016040519081016040528092919081815260200182805461117f90612cc5565b80156111cc5780601f106111a1576101008083540402835291602001916111cc565b820191906000526020600020905b8154815290600101906020018083116111af57829003601f168201915b5050505050905060006111dd611c43565b90506000815114156111f3578192505050611236565b60008251111561122857808260405160200161121092919061308e565b60405160208183030381529060405292505050611236565b61123184611c5a565b925050505b919050565b655af3107a400034101561124e57600080fd5b600a604051806060016040528086815260200185815260200184815250908060018154018082558091505060019003906000526020600020906003020160009091909190915060008201518160000190805190602001906112b09291906122c2565b5060208201518160010190805190602001906112cd9291906122c2565b5060408201518160020190805190602001906112ea9291906122c2565b50505060006001600a8054905061130191906130b2565b905061130d3382611cc2565b6113178183611e9c565b5050505050565b6008805461132b90612cc5565b80601f016020809104026020016040519081016040528092919081815260200182805461135790612cc5565b80156113a45780601f10611379576101008083540402835291602001916113a4565b820191906000526020600020905b81548152906001019060200180831161138757829003601f168201915b505050505081565b6000600560008473ffffffffffffffffffffffffffffffffffffffff1673ffffffffffffffffffffffffffffffffffffffff16815260200190815260200160002060008373ffffffffffffffffffffffffffffffffffffffff1673ffffffffffffffffffffffffffffffffffffffff16815260200190815260200160002060009054906101000a900460ff16905092915050565b611448611936565b600073ffffffffffffffffffffffffffffffffffffffff168173ffffffffffffffffffffffffffffffffffffffff1614156114b8576040517f08c379a00000000000000000000000000000000000000000000000000000000081526004016114af90613158565b60405180910390fd5b6114c1816119b4565b50565b60007f01ffc9a7000000000000000000000000000000000000000000000000000000007bffffffffffffffffffffffffffffffffffffffffffffffffffffffff1916827bffffffffffffffffffffffffffffffffffffffffffffffffffffffff1916149050919050565b61153781611f10565b611576576040517f08c379a000000000000000000000000000000000000000000000000000000000815260040161156d90612ef9565b60405180910390fd5b50565b600033905090565b816004600083815260200190815260200160002060006101000a81548173ffffffffffffffffffffffffffffffffffffffff021916908373ffffffffffffffffffffffffffffffffffffffff160217905550808273ffffffffffffffffffffffffffffffffffffffff166115f483610933565b73ffffffffffffffffffffffffffffffffffffffff167f8c5be1e5ebec7d5bd14f71427d1e84f3dd0314c0f7b2291e5b200ac8c7c3b92560405160405180910390a45050565b60008061164683610933565b90508073ffffffffffffffffffffffffffffffffffffffff168473ffffffffffffffffffffffffffffffffffffffff161480611688575061168781856113ac565b5b806116c657508373ffffffffffffffffffffffffffffffffffffffff166116ae846106f7565b73ffffffffffffffffffffffffffffffffffffffff16145b91505092915050565b8273ffffffffffffffffffffffffffffffffffffffff166116ef82610933565b73ffffffffffffffffffffffffffffffffffffffff1614611745576040517f08c379a000000000000000000000000000000000000000000000000000000000815260040161173c906131ea565b60405180910390fd5b600073ffffffffffffffffffffffffffffffffffffffff168273ffffffffffffffffffffffffffffffffffffffff1614156117b5576040517f08c379a00000000000000000000000000000000000000000000000000000000081526004016117ac9061327c565b60405180910390fd5b6117c0838383611f7c565b6117cb600082611581565b6001600360008573ffffffffffffffffffffffffffffffffffffffff1673ffffffffffffffffffffffffffffffffffffffff168152602001908152602001600020600082825461181b91906130b2565b925050819055506001600360008473ffffffffffffffffffffffffffffffffffffffff1673ffffffffffffffffffffffffffffffffffffffff1681526020019081526020016000206000828254611872919061329c565b92505081905550816002600083815260200190815260200160002060006101000a81548173ffffffffffffffffffffffffffffffffffffffff021916908373ffffffffffffffffffffffffffffffffffffffff160217905550808273ffffffffffffffffffffffffffffffffffffffff168473ffffffffffffffffffffffffffffffffffffffff167fddf252ad1be2c89b69c2b068fc378daa952ba7f163c4a11628f55a4df523b3ef60405160405180910390a4611931838383611f81565b505050565b61193e611579565b73ffffffffffffffffffffffffffffffffffffffff1661195c610b3f565b73ffffffffffffffffffffffffffffffffffffffff16146119b2576040517f08c379a00000000000000000000000000000000000000000000000000000000081526004016119a99061333e565b60405180910390fd5b565b6000600760009054906101000a900473ffffffffffffffffffffffffffffffffffffffff16905081600760006101000a81548173ffffffffffffffffffffffffffffffffffffffff021916908373ffffffffffffffffffffffffffffffffffffffff1602179055508173ffffffffffffffffffffffffffffffffffffffff168173ffffffffffffffffffffffffffffffffffffffff167f8be0079c531659141344cd1fd0a4f28419497f9722a3daafe3b4186f6b6457e060405160405180910390a35050565b8173ffffffffffffffffffffffffffffffffffffffff168373ffffffffffffffffffffffffffffffffffffffff161415611ae9576040517f08c379a0000000000000000000000000000000000000000000000000000000008152600401611ae0906133aa565b60405180910390fd5b80600560008573ffffffffffffffffffffffffffffffffffffffff1673ffffffffffffffffffffffffffffffffffffffff16815260200190815260200160002060008473ffffffffffffffffffffffffffffffffffffffff1673ffffffffffffffffffffffffffffffffffffffff16815260200190815260200160002060006101000a81548160ff0219169083151502179055508173ffffffffffffffffffffffffffffffffffffffff168373ffffffffffffffffffffffffffffffffffffffff167f17307eab39ab6107e8899845ad3d59bd9653f200f220920489ca2b5937696c3183604051611bda9190612419565b60405180910390a3505050565b611bf28484846116cf565b611bfe84848484611f86565b611c3d576040517f08c379a0000000000000000000000000000000000000000000000000000000008152600401611c349061343c565b60405180910390fd5b50505050565b606060405180602001604052806000815250905090565b6060611c658261152e565b6000611c6f611c43565b90506000815111611c8f5760405180602001604052806000815250611cba565b80611c998461211d565b604051602001611caa92919061308e565b6040516020818303038152906040525b915050919050565b600073ffffffffffffffffffffffffffffffffffffffff168273ffffffffffffffffffffffffffffffffffffffff161415611d32576040517f08c379a0000000000000000000000000000000000000000000000000000000008152600401611d29906134a8565b60405180910390fd5b611d3b81611f10565b15611d7b576040517f08c379a0000000000000000000000000000000000000000000000000000000008152600401611d7290613514565b60405180910390fd5b611d8760008383611f7c565b6001600360008473ffffffffffffffffffffffffffffffffffffffff1673ffffffffffffffffffffffffffffffffffffffff1681526020019081526020016000206000828254611dd7919061329c565b92505081905550816002600083815260200190815260200160002060006101000a81548173ffffffffffffffffffffffffffffffffffffffff021916908373ffffffffffffffffffffffffffffffffffffffff160217905550808273ffffffffffffffffffffffffffffffffffffffff16600073ffffffffffffffffffffffffffffffffffffffff167fddf252ad1be2c89b69c2b068fc378daa952ba7f163c4a11628f55a4df523b3ef60405160405180910390a4611e9860008383611f81565b5050565b611ea582611f10565b611ee4576040517f08c379a0000000000000000000000000000000000000000000000000000000008152600401611edb906135a6565b60405180910390fd5b80600660008481526020019081526020016000209080519060200190611f0b9291906122c2565b505050565b60008073ffffffffffffffffffffffffffffffffffffffff166002600084815260200190815260200160002060009054906101000a900473ffffffffffffffffffffffffffffffffffffffff1673ffffffffffffffffffffffffffffffffffffffff1614159050919050565b505050565b505050565b6000611fa78473ffffffffffffffffffffffffffffffffffffffff1661227e565b15612110578373ffffffffffffffffffffffffffffffffffffffff1663150b7a02611fd0611579565b8786866040518563ffffffff1660e01b8152600401611ff2949392919061361b565b602060405180830381600087803b15801561200c57600080fd5b505af192505050801561203d57506040513d601f19601f8201168201806040525081019061203a919061367c565b60015b6120c0573d806000811461206d576040519150601f19603f3d011682016040523d82523d6000602084013e612072565b606091505b506000815114156120b8576040517f08c379a00000000000000000000000000000000000000000000000000000000081526004016120af9061343c565b60405180910390fd5b805181602001fd5b63150b7a0260e01b7bffffffffffffffffffffffffffffffffffffffffffffffffffffffff1916817bffffffffffffffffffffffffffffffffffffffffffffffffffffffff191614915050612115565b600190505b949350505050565b60606000821415612165576040518060400160405280600181526020017f30000000000000000000000000000000000000000000000000000000000000008152509050612279565b600082905060005b6000821461219757808061218090613009565b915050600a8261219091906136d8565b915061216d565b60008167ffffffffffffffff8111156121b3576121b2612786565b5b6040519080825280601f01601f1916602001820160405280156121e55781602001600182028036833780820191505090505b5090505b60008514612272576001826121fe91906130b2565b9150600a8561220d9190613709565b6030612219919061329c565b60f81b81838151811061222f5761222e612fab565b5b60200101907effffffffffffffffffffffffffffffffffffffffffffffffffffffffffffff1916908160001a905350600a8561226b91906136d8565b94506121e9565b8093505050505b919050565b6000808273ffffffffffffffffffffffffffffffffffffffff163b119050919050565b60405180606001604052806060815260200160608152602001606081525090565b8280546122ce90612cc5565b90600052602060002090601f0160209004810192826122f05760008555612337565b82601f1061230957805160ff1916838001178555612337565b82800160010185558215612337579182015b8281111561233657825182559160200191906001019061231b565b5b5090506123449190612348565b5090565b5b80821115612361576000816000905550600101612349565b5090565b6000604051905090565b600080fd5b600080fd5b60007fffffffff0000000000000000000000000000000000000000000000000000000082169050919050565b6123ae81612379565b81146123b957600080fd5b50565b6000813590506123cb816123a5565b92915050565b6000602082840312156123e7576123e661236f565b5b60006123f5848285016123bc565b91505092915050565b60008115159050919050565b612413816123fe565b82525050565b600060208201905061242e600083018461240a565b92915050565b600081519050919050565b600082825260208201905092915050565b60005b8381101561246e578082015181840152602081019050612453565b8381111561247d576000848401525b50505050565b6000601f19601f8301169050919050565b600061249f82612434565b6124a9818561243f565b93506124b9818560208601612450565b6124c281612483565b840191505092915050565b600060208201905081810360008301526124e78184612494565b905092915050565b6000819050919050565b612502816124ef565b811461250d57600080fd5b50565b60008135905061251f816124f9565b92915050565b60006020828403121561253b5761253a61236f565b5b600061254984828501612510565b91505092915050565b600073ffffffffffffffffffffffffffffffffffffffff82169050919050565b600061257d82612552565b9050919050565b61258d81612572565b82525050565b60006020820190506125a86000830184612584565b92915050565b6125b781612572565b81146125c257600080fd5b50565b6000813590506125d4816125ae565b92915050565b600080604083850312156125f1576125f061236f565b5b60006125ff858286016125c5565b925050602061261085828601612510565b9150509250929050565b6000806000606084860312156126335761263261236f565b5b6000612641868287016125c5565b9350506020612652868287016125c5565b925050604061266386828701612510565b9150509250925092565b6000602082840312156126835761268261236f565b5b6000612691848285016125c5565b91505092915050565b6126a3816124ef565b82525050565b60006020820190506126be600083018461269a565b92915050565b6126cd816123fe565b81146126d857600080fd5b50565b6000813590506126ea816126c4565b92915050565b600080604083850312156127075761270661236f565b5b6000612715858286016125c5565b9250506020612726858286016126db565b9150509250929050565b6000606082019050818103600083015261274a8186612494565b9050818103602083015261275e8185612494565b905081810360408301526127728184612494565b9050949350505050565b600080fd5b600080fd5b7f4e487b7100000000000000000000000000000000000000000000000000000000600052604160045260246000fd5b6127be82612483565b810181811067ffffffffffffffff821117156127dd576127dc612786565b5b80604052505050565b60006127f0612365565b90506127fc82826127b5565b919050565b600067ffffffffffffffff82111561281c5761281b612786565b5b61282582612483565b9050602081019050919050565b82818337600083830152505050565b600061285461284f84612801565b6127e6565b9050828152602081018484840111156128705761286f612781565b5b61287b848285612832565b509392505050565b600082601f8301126128985761289761277c565b5b81356128a8848260208601612841565b91505092915050565b600080600080608085870312156128cb576128ca61236f565b5b60006128d9878288016125c5565b94505060206128ea878288016125c5565b93505060406128fb87828801612510565b925050606085013567ffffffffffffffff81111561291c5761291b612374565b5b61292887828801612883565b91505092959194509250565b600082825260208201905092915050565b600061295082612434565b61295a8185612934565b935061296a818560208601612450565b61297381612483565b840191505092915050565b6000606083016000830151848203600086015261299b8282612945565b915050602083015184820360208601526129b58282612945565b915050604083015184820360408601526129cf8282612945565b9150508091505092915050565b600060208201905081810360008301526129f6818461297e565b905092915050565b600081519050919050565b600082825260208201905092915050565b6000819050602082019050919050565b612a33816124ef565b82525050565b6000612a458383612a2a565b60208301905092915050565b6000602082019050919050565b6000612a69826129fe565b612a738185612a09565b9350612a7e83612a1a565b8060005b83811015612aaf578151612a968882612a39565b9750612aa183612a51565b925050600181019050612a82565b5085935050505092915050565b60006020820190508181036000830152612ad68184612a5e565b905092915050565b600067ffffffffffffffff821115612af957612af8612786565b5b612b0282612483565b9050602081019050919050565b6000612b22612b1d84612ade565b6127e6565b905082815260208101848484011115612b3e57612b3d612781565b5b612b49848285612832565b509392505050565b600082601f830112612b6657612b6561277c565b5b8135612b76848260208601612b0f565b91505092915050565b60008060008060808587031215612b9957612b9861236f565b5b600085013567ffffffffffffffff811115612bb757612bb6612374565b5b612bc387828801612b51565b945050602085013567ffffffffffffffff811115612be457612be3612374565b5b612bf087828801612b51565b935050604085013567ffffffffffffffff811115612c1157612c10612374565b5b612c1d87828801612b51565b925050606085013567ffffffffffffffff811115612c3e57612c3d612374565b5b612c4a87828801612b51565b91505092959194509250565b60008060408385031215612c6d57612c6c61236f565b5b6000612c7b858286016125c5565b9250506020612c8c858286016125c5565b9150509250929050565b7f4e487b7100000000000000000000000000000000000000000000000000000000600052602260045260246000fd5b60006002820490506001821680612cdd57607f821691505b60208210811415612cf157612cf0612c96565b5b50919050565b7f4552433732313a20617070726f76616c20746f2063757272656e74206f776e6560008201527f7200000000000000000000000000000000000000000000000000000000000000602082015250565b6000612d5360218361243f565b9150612d5e82612cf7565b604082019050919050565b60006020820190508181036000830152612d8281612d46565b9050919050565b7f4552433732313a20617070726f76652063616c6c6572206973206e6f7420746f60008201527f6b656e206f776e6572206e6f7220617070726f76656420666f7220616c6c0000602082015250565b6000612de5603e8361243f565b9150612df082612d89565b604082019050919050565b60006020820190508181036000830152612e1481612dd8565b9050919050565b7f4552433732313a2063616c6c6572206973206e6f7420746f6b656e206f776e6560008201527f72206e6f7220617070726f766564000000000000000000000000000000000000602082015250565b6000612e77602e8361243f565b9150612e8282612e1b565b604082019050919050565b60006020820190508181036000830152612ea681612e6a565b9050919050565b7f4552433732313a20696e76616c696420746f6b656e2049440000000000000000600082015250565b6000612ee360188361243f565b9150612eee82612ead565b602082019050919050565b60006020820190508181036000830152612f1281612ed6565b9050919050565b7f4552433732313a2061646472657373207a65726f206973206e6f74206120766160008201527f6c6964206f776e65720000000000000000000000000000000000000000000000602082015250565b6000612f7560298361243f565b9150612f8082612f19565b604082019050919050565b60006020820190508181036000830152612fa481612f68565b9050919050565b7f4e487b7100000000000000000000000000000000000000000000000000000000600052603260045260246000fd5b7f4e487b7100000000000000000000000000000000000000000000000000000000600052601160045260246000fd5b6000613014826124ef565b91507fffffffffffffffffffffffffffffffffffffffffffffffffffffffffffffffff82141561304757613046612fda565b5b600182019050919050565b600081905092915050565b600061306882612434565b6130728185613052565b9350613082818560208601612450565b80840191505092915050565b600061309a828561305d565b91506130a6828461305d565b91508190509392505050565b60006130bd826124ef565b91506130c8836124ef565b9250828210156130db576130da612fda565b5b828203905092915050565b7f4f776e61626c653a206e6577206f776e657220697320746865207a65726f206160008201527f6464726573730000000000000000000000000000000000000000000000000000602082015250565b600061314260268361243f565b915061314d826130e6565b604082019050919050565b6000602082019050818103600083015261317181613135565b9050919050565b7f4552433732313a207472616e736665722066726f6d20696e636f72726563742060008201527f6f776e6572000000000000000000000000000000000000000000000000000000602082015250565b60006131d460258361243f565b91506131df82613178565b604082019050919050565b60006020820190508181036000830152613203816131c7565b9050919050565b7f4552433732313a207472616e7366657220746f20746865207a65726f2061646460008201527f7265737300000000000000000000000000000000000000000000000000000000602082015250565b600061326660248361243f565b91506132718261320a565b604082019050919050565b6000602082019050818103600083015261329581613259565b9050919050565b60006132a7826124ef565b91506132b2836124ef565b9250827fffffffffffffffffffffffffffffffffffffffffffffffffffffffffffffffff038211156132e7576132e6612fda565b5b828201905092915050565b7f4f776e61626c653a2063616c6c6572206973206e6f7420746865206f776e6572600082015250565b600061332860208361243f565b9150613333826132f2565b602082019050919050565b600060208201905081810360008301526133578161331b565b9050919050565b7f4552433732313a20617070726f766520746f2063616c6c657200000000000000600082015250565b600061339460198361243f565b915061339f8261335e565b602082019050919050565b600060208201905081810360008301526133c381613387565b9050919050565b7f4552433732313a207472616e7366657220746f206e6f6e20455243373231526560008201527f63656976657220696d706c656d656e7465720000000000000000000000000000602082015250565b600061342660328361243f565b9150613431826133ca565b604082019050919050565b6000602082019050818103600083015261345581613419565b9050919050565b7f4552433732313a206d696e7420746f20746865207a65726f2061646472657373600082015250565b600061349260208361243f565b915061349d8261345c565b602082019050919050565b600060208201905081810360008301526134c181613485565b9050919050565b7f4552433732313a20746f6b656e20616c7265616479206d696e74656400000000600082015250565b60006134fe601c8361243f565b9150613509826134c8565b602082019050919050565b6000602082019050818103600083015261352d816134f1565b9050919050565b7f45524337323155524953746f726167653a2055524920736574206f66206e6f6e60008201527f6578697374656e7420746f6b656e000000000000000000000000000000000000602082015250565b6000613590602e8361243f565b915061359b82613534565b604082019050919050565b600060208201905081810360008301526135bf81613583565b9050919050565b600081519050919050565b600082825260208201905092915050565b60006135ed826135c6565b6135f781856135d1565b9350613607818560208601612450565b61361081612483565b840191505092915050565b60006080820190506136306000830187612584565b61363d6020830186612584565b61364a604083018561269a565b818103606083015261365c81846135e2565b905095945050505050565b600081519050613676816123a5565b92915050565b6000602082840312156136925761369161236f565b5b60006136a084828501613667565b91505092915050565b7f4e487b7100000000000000000000000000000000000000000000000000000000600052601260045260246000fd5b60006136e3826124ef565b91506136ee836124ef565b9250826136fe576136fd6136a9565b5b828204905092915050565b6000613714826124ef565b915061371f836124ef565b92508261372f5761372e6136a9565b5b82820690509291505056fea26469706673582212201f80941efa61bb35c558e8c72101c60ee978f584719f5e6f2e6f49349b06dccc64736f6c63430008090033",
  "linkReferences": {},
  "deployedLinkReferences": {}
}